:060000000A128A110C280F
:10000800FE00030EF1000A08F2000A168A155B2C9E
:100018000A128A110F28F801F901FA018312031351
:10002800ED018313CF308400E5300A168A11B02021
:100038000A128A1183010A128A15192883160313D2
:10004800C300A930AD002D08B600752F25304A062B
:1000580003192F2830283C284A08AD00430884009B
:100068002D08831380000130AD002D08C307752FBC
:10007800B701B801280884000A168A110A200A1252
:100088008A112E3A031D49284A288F28381701302B
:10009800AD002D08A807C401C5017E280A30F30069
:1000A8000030F400831603134508F6004408F500F1
:1000B8000A168A15EA220A128A117408831603138B
:1000C800C5007308C400280884000A168A110A208B
:1000D8000A128A11D03EAD00FF3003180030AE007E
:1000E8002D08C4070318C50A2E08C5070130AD003E
:1000F8002D08A807280884000A168A110A200A125F
:100108008A110A128A1507200A128A1103188D28E3
:100118008E2852289528C401C50138169528381507
:10012800B128013083160313A807FF30280784007D
:100138000A168A110A200A128A11CA00AD00AE01F5
:100148002E08003A0319A928752F2D08003A03191B
:10015800872F663A03199328752F00303705AD00AD
:1001680007303805AE002D082E040319BC28BD2819
:10017800302F381EC028C128C5280630C4000030DA
:10018800C5003608840083130008C600840A0008E6
:10019800C700840A0008C800840A0008C90004309F
:1001A800AD002D08B607490883120313A300831670
:1001B8000313480883120313A20083160313470886
:1001C80083120313A1008316031346088312031333
:1001D800A0000030A7000030A6000030A5000030C5
:1001E800A4000A168A155C270A128A110318FD282A
:1001F800FE281B29831603134908F6004808F50052
:100208004708F4004608F3000A128A11F5270A1273
:100218008A11760883160313C9007508C800740884
:10022800C7007308C6000330B7040030B80483164B
:100238000313BD01BE01490883120313A3008316EB
:100248000313480883120313A200831603134708F5
:1002580083120313A10083160313460883120313A2
:10026800A0000030A7000030A6000030A500003034
:10027800A4000A168A15EE240A128A1103184529C1
:100288004629622A031083160313480D490D823E3E
:10029800BD00FF3003180030BE00FF30BD07031853
:1002A800BE0AFF30BE070330F3000030F4003E08FA
:1002B800F6003D08F5000A168A15EA220A128A1184
:1002C800740883160313BE007308BD000A30831236
:1002D8000313A2000030A300831603133E08831201
:1002E8000313A500831603133D0883120313A40008
:1002F8000A128A118C270A128A11831203132308FF
:1003080083160313BE0083120313220883160313F4
:10031800BD00BE1F902991299729FF30BD070318FA
:10032800BE0AFF30BE073D03FF3A0A128A159D2414
:100338000A128A1183120313480883160313C20092
:1003480083120313470883160313C1008312031390
:10035800460883160313C000831203134508831647
:100368000313BF00490883120313AE008316031357
:10037800480883120313AD0083160313470883123A
:100388000313AC0083160313460883120313AB0050
:1003980083160313420883120313B2008316031350
:1003A800410883120313B100831603134008831214
:1003B8000313B000831603133F0883120313AF001F
:1003C8000A128A153C210A128A11831203132E0875
:1003D80083160313C200831203132D088316031315
:1003E800C100831203132C0883160313C000831261
:1003F80003132B0883160313BF0042088312031349
:10040800A30083160313410883120313A200831663
:100418000313400883120313A100831603133F0834
:1004280083120313A0003F30A7008030A6000030DD
:10043800A5000030A4000A168A155C270A128A1142
:100448000318272A282A312AFF3083160313BD07E9
:100458000318BE0AFF30BE07622A83160313420838
:1004680083120313A3008316031341088312031393
:10047800A20083160313400883120313A1008316F6
:1004880003133F0883120313A0004130A700203054
:10049800A6000030A5000030A4000A168A155C27C3
:1004A8000A128A11031C592A5A2A622A0130831611
:1004B8000313BD070318BE0A0030BE0783160313D3
:1004C8004508803AFF0080307F02031D6D2A0D30F9
:1004D80044020318702A712AB82A831603134408A1
:1004E8000A168A116B230A128A1183120313480809
:1004F800DC004708DB004608DA004508D900831607
:100508000313490883120313E000831603134808F2
:1005180083120313DF0083160313470883120313A0
:10052800DE0083160313460883120313DD000A1640
:100538008A1178250A128A11831203135C0883161C
:100548000313C900831203135B0883160313C8003F
:10055800831203135A0883160313C7008312031365
:10056800590883160313C600831603133E08803AFE
:10057800FF0080307F02031DC32A0A303D020318A2
:10058800C62AC72A262B8316031349088312031386
:10059800A30083160313480883120313A2008316CB
:1005A8000313470883120313A10083160313460895
:1005B80083120313A0000030A7000030A60000300B
:1005C800A5000030A4000A168A15EE240A128A1122
:1005D8000318EF2AF02AD22B831603134908831233
:1005E8000313DB0083160313480883120313DA008E
:1005F80083160313470883120313D90083160313C2
:10060800460883120313D8000A168A11B8200A1262
:100618008A11831203135B085A0459045804031DF2
:10062800162B172BD22B831603133E08803AFF0094
:1006380080307F02031D222B02303D02031C252B34
:10064800262BD22B83160313420883120313A3000D
:1006580083160313410883120313A200831603139E
:10066800400883120313A100831603133F08831263
:100678000313A0004030A7008930A6007030A50001
:100688005F30A4000A168A155C270A128A1103181B
:100698004E2B4F2B582BF73083160313BD07031827
:1006A800BE0AFF30BE07602BF83083160313BD0760
:1006B8000318BE0AFF30BE073D080A128A159D249A
:1006C8000A128A1183120313480883160313C200FF
:1006D80083120313470883160313C10083120313FD
:1006E800460883160313C0008312031345088316B4
:1006F8000313BF00490883120313A30083160313CF
:10070800480883120313A2008316031347088312B1
:100718000313A10083160313460883120313A000D2
:1007280083160313420883120313A70083160313C7
:10073800410883120313A60083160313400883128B
:100748000313A500831603133F0883120313A400A1
:100758000A168A11AD220A128A118312031323087A
:1007680083160313BC008312031322088316031392
:10077800BB0083120313210883160313BA008312E4
:100788000313200883160313B9000030C900003092
:10079800C8000030C7000030C600382C8316031389
:1007A800490883120313DB008316031348088312D6
:1007B8000313DA0083160313470883120313D900BF
:1007C80083160313460883120313D8000A168A11E6
:1007D800B8200A128A11831203135B0883160313C5
:1007E800BC00831203135A0883160313BB00831239
:1007F8000313590883160313BA0083120313580806
:1008080083160313B9003C08F6003B08F5003A08C4
:10081800F4003908F30000300A168A1134210A124C
:100828008A11760883160313A3007508A2007408BA
:10083800A1007308A0004908A7004808A6004708B7
:10084800A5004608A4000A168A153E250A128A1130
:10085800831603132308C9002208C8002108C7000B
:100868002008C600BD01BE01CA01CA0A4A08AD0077
:1008780001300310AD0DFF3E031D3D2C03102D0D5F
:10088800693E84000A168A110A200A128A11AE00EB
:100898000A168A110A200A128A11AF000A168A114A
:1008A8000A200A128A11B0000A168A110A200A12AE
:1008B8008A11B10031083C02031D6C2C30083B0240
:1008C800031D6C2C2F083A02031D6C2C2E083902CC
:1008D80003186F2C702C712C7B2C0130AD002D0867
:1008E800CA070A304A06031D7A2C7B2C3A2C03309F
:1008F8003705AD0000303805AE002D082E04031969
:10090800862C872C392D2D30AD00430884002D0806
:10091800831380000130AD002D08C307392D4A0824
:10092800AD0001300310AD0DFF3E031D962C0310E2
:100938002D0D693E84000A168A110A200A128A11AE
:1009480083120313A0000A168A110A200A128A11B8
:10095800A1000A168A110A200A128A11A2000A1690
:100968008A110A200A128A11A300831603133C086D
:1009780083120313A700831603133B088312031380
:10098800A600831603133A0883120313A5008316DF
:100998000313390883120313A4000A168A15F426D0
:1009A8000A128A1183120313230883160313C20041
:1009B80083120313220883160313C100831203133F
:1009C800210883160313C00083120313200883161B
:1009D8000313BF00003083120313A3000030A200EA
:1009E8000030A1000A30A0008316031342088312C6
:1009F8000313A70083160313410883120313A600E9
:100A080083160313400883120313A50083160313E8
:100A18003F0883120313A4000A168A15E4250A1254
:100A28008A1183120313230883160313C200831247
:100A38000313220883160313C1008312031321082A
:100A480083160313C00083120313200883160313AD
:100A5800BF003F08303EAD00430884002D088313D3
:100A680080000130AD002D08C3070130CA024A0AD0
:100A7800031D3F2D402D932C542D30308316031326
:100A8800AD00430884002D08831380000130AD00B9
:100A98002D08C307FF30BD070318BE0AFF30BE0785
:100AA8003E08803AFF0080307F02031D5D2D013033
:100AB8003D020318602D612D412D8316031345084F
:100AC800803AFF0080307F02031D6C2D09304402FC
:100AD800031C6F2D702D772D083083160313AD007E
:100AE8002D08CA007D2D831603134408AD002D0878
:100AF800CA004A08AD00AE012D08C4022E08031C26
:100B0800C503C5024A0803198A2D8B2D962D2E3050
:100B1800AD00430884002D08831380000130AD0028
:100B28002D08C3074A080A128A159D240A128A1139
:100B380083120313480883160313B50083120313A3
:100B4800470883160313B400831203134608831659
:100B58000313B30083120313450883160313B2006B
:100B6800350883120313B200831603133408831263
:100B78000313B10083160313330883120313B00061
:100B880083160313320883120313AF00831603136B
:100B9800490883120313AE0083160313480883120F
:100BA8000313AD0083160313470883120313AC0025
:100BB80083160313460883120313AB000A128A151F
:100BC8003C210A128A11831203132E08DB002D0818
:100BD800DA002C08D9002B08D8000A168A11B82088
:100BE8000A128A11831203135B0883160313BC00CD
:100BF800831203135A0883160313BB0083120313CB
:100C0800590883160313BA0083120313580883166E
:100C18000313B900102F4A08AD0001300310AD0DC1
:100C2800FF3E031D122E03102D0D693E84000A1687
:100C38008A110A200A128A1183120313A0000A16C5
:100C48008A110A200A128A11A1000A168A110A209A
:100C58000A128A11A2000A168A110A200A128A1197
:100C6800A300831603133C0883120313A7008316FB
:100C780003133B0883120313A600831603133A08D1
:100C880083120313A5008316031339088312031371
:100C9800A4000A168A15F4260A128A11831203136D
:100CA800230883160313C200831203132208831632
:100CB8000313C10083120313210883160313C00012
:100CC80083120313200883160313BF000030831216
:100CD8000313A3000030A2000030A1000A30A000D6
:100CE80083160313420883120313A7008316031302
:100CF800410883120313A6008316031340088312C6
:100D08000313A500831603133F0883120313A400DB
:100D18000A168A15E4250A128A1183120313230876
:100D280083160313C20083120313220883160313C6
:100D3800C10083120313210883160313C000831212
:100D48000313200883160313BF003F08303EAD008D
:100D5800430884002D08831380000130AD002D085E
:100D6800C3074A08AD0001300310AD0DFF3E031D57
:100D7800B82E03102D0D693E84000A168A110A2028
:100D88000A128A1183120313A0000A168A110A2074
:100D98000A128A11A1000A168A110A200A128A1157
:100DA800A2000A168A110A200A128A11A3008316C1
:100DB80003133C0883120313A700831603133B088D
:100DC80083120313A600831603133A08831203132E
:100DD800A50083160313390883120313A4000A1607
:100DE8008A15E4250A128A1183120313230883162D
:100DF8000313BC0083120313220883160313BB00DA
:100E080083120313210883160313BA0083120313F2
:100E1800200883160313B9000130CA024A0A031DC9
:100E2800162F172F0F2E292F3030AD0043088400BE
:100E38002D08831380000130AD002D08C307FF3053
:100E4800C4070318C50AFF30C50744084504031D35
:100E58002E2F2F2F182F752F44084504031D352FCB
:100E6800362F442F3C083B043A043904031D3D2F18
:100E78003E2F442F0130C4070318C50A0030C507A8
:100E88004508803A803C031D4B2F44084A0203184A
:100E98004E2F4F2F502F5F2F831603134508803A8C
:100EA800AD0080302D02031D5B2F4A084402031851
:100EB8005E2F5F2F5F2F0330831603133705AD00B6
:100EC80000303805AE002D082E0403196C2F6D2F45
:100ED800752F2D30AD00430884002D088313800042
:100EE80037280130A807FF30280784000A168A111E
:100EF8000A200A128A11AD002D08CA004A08031DEB
:100F0800862F872F2A28430884008313800108002E
:100F180083120313A801A31F922F932F9A2FA209BC
:100F2800A309A20A0319A30AA801A80AA51F9D2FAD
:100F38009E2FA72FA409A509A40A0319A50A013001
:100F4800A6002608A806A901AA0122082304031955
:100F5800AE2FAF2FE62FA701A70ABD2F0130031030
:100F6800A20DA30DFF3E031DB32F0130A6002608D6
:100F7800A707A31FC02FC12FB22F01300310A90D3F
:100F8800AA0DFF3E031DC22F23082502031DCE2FE5
:100F980022082402031CD12FD22FD92F2208A40201
:100FA8002308031CA503A502291401300310A30C70
:100FB800A20CFF3E031DDA2F0130A702031DE52F07
:100FC800E62FC12F28080319EA2FEB2FF02FA909C4
:100FD800AA09A90A0319AA0A2A08A3002908A2002B
:100FE800080076087504740473040319FC2FFD2F98
:080FF800FF2F8030F60608000F
:10100200F30073088312031388000800F400F3014D
:101012003A30740203180E280F2817283030740251
:10102200031C142815281728F301F30A730C08006F
:101032000A168A15C0220A128A150A168A15302241
:101042000A128A150A168A1595260A128A15F301BA
:10105200F30A00300A168A158E230A128A153C30CA
:1010620083120313AE00A030AD00A530AC002730D0
:10107200AB00831603135F08CB00CC01CD01CE0178
:101082004E08F6004D08F5004C08F4004B08F3003A
:1010920001300A168A1134210A128A15760883123F
:1010A2000313B2007508B1007408B0007308AF00F2
:1010B2000A128A153C210A128A15831203132E087A
:1010C20083160313DB00831203132D088316031305
:1010D200DA00831203132C0883160313D900831238
:1010E20003132B0883160313D8003C308312031317
:1010F200AE00A030AD00A530AC002730AB008316A7
:1011020003135E08CB00CC01CD01CE014E08F600E0
:101112004D08F5004C08F4004B08F30001300A16A4
:101122008A1134210A128A15760883120313B20037
:101132007508B1007408B0007308AF000A128A156E
:101142003C210A128A15831203132E0883160313F5
:10115200D700831203132D0883160313D6008312BC
:1011620003132C0883160313D500831203132B08D1
:1011720083160313D400831203136D08031DC228C0
:10118200C328FE28F701F70A01300A168A157122D0
:101192000A128A15983083120313A0008030A1002E
:1011A2000A168A15CF230A128A15F701F70A0230A6
:1011B2000A168A1571220A128A15923083160313AF
:1011C200CB004B08A8005B08AC005A08AB005908DA
:1011D200AA005808A900E0300A128A1122200A1235
:1011E2008A15E03083120313A0000030A1000A1612
:1011F2008A15CF230A128A152828F701F70A013027
:101202000A168A1571220A128A159C308312031358
:10121200A0008030A1000A168A15CF230A128A156F
:10122200F701F70A02300A168A1571220A128A1584
:10123200913083160313CB004B08A8005708AC006B
:101242005608AB005508AA005408A900E0300A125B
:101252008A1122200A128A15E03083120313A00099
:101262000030A1000A168A15CF230A128A152828EF
:101272000A128A110C28831203132E088039B30034
:101282003308B8002E08B3003307B4003408BE0098
:10129200AD1F4C294D294E293E143E0803195229EF
:1012A200532962293E0A031D572958296029003013
:1012B200AE000030AD000030AC000030AB00AD1726
:1012C2006A290030AE000030AD000030AC000030C2
:1012D200AB0032088039B3003308B8063208B300D5
:1012E2003307B4003408BD00B11F782979297A295F
:1012F2003D143D0803197E297F298E293D0A031DCD
:10130200832984298C290030B2000030B1000030DA
:10131200B0000030AF00B11796290030B2000030A3
:10132200B1000030B0000030AF003D0803199A2927
:101332009B29A0293E08031D9F29A029A929003025
:10134200AE000030AD000030AC000030AB009C2C91
:101352002B08B3003308F30031080A168A159722C6
:101362000A128A15740883120313C4007308C30097
:101372004308B300B401B501B6013608BC00350814
:10138200BB003408BA003308B9004408B300B40102
:10139200B501B6013608C2003508C1003408C000E4
:1013A2003308BF002C08B3003308F30030080A16D4
:1013B2008A1597220A128A15740883120313C4002D
:1013C2007308C3004308B300B401B501B601330882
:1013D200B907340803110318013E0319F129BA07AA
:1013E200350803110318013E0319F829BB07360813
:1013F20003110318013E0319FF29BC074408B30077
:10140200B401B501B6013308BF073408031103184C
:10141200013E03190D2AC007350803110318013EC6
:101422000319142AC107360803110318013E0319D0
:101432001B2AC2072D08B3003308F3002F080A162F
:101442008A1597220A128A15740883120313C4009C
:101452007308C3004308B300B401B501B6013308F1
:10146200B907340803110318013E0319392ABA07D0
:10147200350803110318013E0319402ABB07360839
:1014820003110318013E0319472ABC074408B3009D
:10149200B401B501B6013308BF07340803110318BC
:1014A200013E0319552AC007350803110318013EEE
:1014B20003195C2AC107360803110318013E0319F8
:1014C200632AC2070830B3000310B90DBA0DBB0D71
:1014D200BC0DB30B652A2C08B3003308F3002F08A8
:1014E2000A168A1597220A128A15740883120313A0
:1014F200C4007308C3004308B3004408B400B50134
:10150200B6013308B907340803110318013E031961
:101512008B2ABA07350803110318013E0319922AD0
:10152200BB07360803110318013E0319992ABC07A9
:101532002B08B3003308F30030080A168A159722E5
:101542000A128A15740883120313C4007308C300B5
:101552004308B3004408B400B501B6013308B90723
:10156200340803110318013E0319B82ABA073508D3
:1015720003110318013E0319BF2ABB0736080311E2
:101582000318013E0319C62ABC070830B300031032
:10159200B90DBA0DBB0DBC0DB30BC82A2B08B30095
:1015A2003308F3002F080A168A1597220A128A15A1
:1015B200740883120313C4007308C3004308B30002
:1015C2004408B400B501B6013308B9073408031161
:1015D2000318013E0319EE2ABA073508031103184E
:1015E200013E0319F52ABB07360803110318013E11
:1015F2000319FC2ABC072C08B3003308F300310896
:101602000A168A1597220A128A157408831203137E
:10161200C4007308C3004308B3004408B400B50112
:10162200B6013308BF07340803110318013E03193A
:101632001B2BC007350803110318013E0319222B87
:10164200C107360803110318013E0319292BC207EB
:101652002D08B3003308F30030080A168A159722C2
:101662000A128A15740883120313C4007308C30094
:101672004308B3004408B400B501B6013308BF07FC
:10168200340803110318013E0319482BC00735081B
:1016920003110318013E03194F2BC107360803112A
:1016A2000318013E0319562BC2072D08B300330855
:1016B200F30031080A168A1597220A128A1574084D
:1016C20083120313C4007308C3004308B300440821
:1016D200B400B501B60108300310B30DB40DB50D59
:1016E200B60DFF3E031D6D2B3308BF0734080311EF
:1016F2000318013E03197E2BC00735080311031896
:10170200013E0319852BC107360803110318013E58
:1017120003198C2BC2073908B3003A08B4003B08FE
:10172200B5003C08B60018300310B60CB50CB40C6A
:10173200B30CFF3E031D952B3308BF07340803117A
:101742000318013E0319A62BC0073508031103181D
:10175200013E0319AD2BC107360803110318013EE0
:101762000319B42BC2070830B3000310B90DBA0D28
:10177200BB0DBC0DB30BB62B3E083D07B300B40145
:10178200B40D3308823EC30034080318013EFF3E05
:10179200C400E82B0130B3000310BF0DC00DC10D12
:1017A200C20DB30BCD2BBC1FD72BD82BD92B3F147B
:1017B2000130B3000310B90DBA0DBB0DBC0DB30B54
:1017C200DB2BFF30C3070318C40AFF30C407C11F55
:1017D200EB2BEC2BCB2BBD01BC1FF02BF12B0D2CDB
:1017E200FF303905B300FF303A05B400FF303B0546
:1017F200B5007F303C05B6003608350434043304A6
:101802000319042C052C082CBD01BD0A0D2C3F1C0C
:101812000B2C0C2C0D2C052C3D080319112C122C11
:10182200432C0130BF07003003180130C0070030DD
:1018320003180130C107003003180130C207421CEF
:10184200232C242C432C3F08B3004008B400410849
:10185200B5004208B6000130B700360DB60CB50C23
:10186200B40CB30CB70B2E2C3608C2003508C100DD
:101872003408C0003308BF000130C3070318C40A8C
:101882000030C4074408803AFF0080307F02031D05
:101892004C2CFF304302031C4F2C502C5B2C7F300E
:1018A20083120313C2008030C1000030C000003038
:1018B200BF00902C831203134408803AFF0080304B
:1018C2007F02031D662C013043020318692C6A2C27
:1018D200762C003083120313C2000030C1000030A6
:1018E200C0000030BF00B801902C831203134308DC
:1018F200B3003308BE00FF30BF05FF30C0057F30A4
:10190200C1050030C2053E1C872C882C892CC117CA
:101912003E08B3000310330CB4003408C200380888
:10192200B3003308C2044208AE004108AD004008CB
:10193200AC003F08AB00080083120313D700D71F87
:10194200A32CA42C532ED709D70A5708803A123E4B
:10195200031CAC2CAD2C972D0A30A2000030A30042
:101962005708F500F601F51BF6036430F30000306A
:10197200F4000A168A153A260A128A157408831286
:101982000313A5007308A4000A128A118C270A12F5
:101992008A15831203132208C90001300310C90DEE
:1019A200FF3E031DCF2C0310490D593E84000A1639
:1019B2008A110A200A128A15CA000A168A110A20F6
:1019C2000A128A15CB000A168A110A200A128A15EF
:1019D200CC000A168A110A200A128A15CD004D0877
:1019E200AE004C08AD004B08AC004A08AB006430B6
:1019F200A2000030A3005708A400A501A41BA50360
:101A02000A128A118C270A128A15831203132208DA
:101A1200CE0001300310CE0DFF3E031D0B2D03102F
:101A22004E0D7D3E84000A168A110A200A128A157A
:101A3200CF000A168A110A200A128A15D0000A1645
:101A42008A110A200A128A15D1000A168A110A205E
:101A52000A128A15D2005208B2005108B100500889
:101A6200B0004F08AF000A128A153C210A128A15EB
:101A7200831203132E08D6002D08D5002C08D4009B
:101A82002B08D3000A30F3000030F4005708F500A9
:101A9200F601F51BF6030A168A153A260A128A156A
:101AA200730883120313C90001300310C90DFF3EEE
:101AB200031D562D0310490D353E84000A168A1166
:101AC2000A200A128A15CA000A168A110A200A1264
:101AD2008A15CB000A168A110A200A128A15CC002E
:101AE2000A168A110A200A128A15CD004D08AE0084
:101AF2004C08AD004B08AC004A08AB005608B200D7
:101B02005508B1005408B0005308AF000A128A15F4
:101B12003C210A128A15831203132E08C8002D08CD
:101B2200C7002C08C6002B08C500FF2F5708803AB3
:101B3200753E031C9D2D9E2D262E0A30F30000308B
:101B4200F4005708F500F601F51BF6030A168A158C
:101B52003A260A128A15730883120313C900013048
:101B62000310C90DFF3E031DB12D0310490D353E73
:101B720084000A168A110A200A128A15CA000A1655
:101B82008A110A200A128A15CB000A168A110A2023
:101B92000A128A15CC000A168A110A200A128A151C
:101BA200CD004D08AE004C08AD004B08AC004A0811
:101BB200AB000A30A2000030A3005708A400A50120
:101BC200A41BA5030A128A118C270A128A158312F2
:101BD20003132208CE0001300310CE0DFF3E031D79
:101BE200ED2D03104E0D593E84000A168A110A206B
:101BF2000A128A15CF000A168A110A200A128A15B9
:101C0200D0000A168A110A200A128A15D1000A1671
:101C12008A110A200A128A15D2005208B20051080B
:101C2200B1005008B0004F08AF000A128A153C21DB
:101C32000A128A15831203132E08C8002D08C70042
:101C42002C08C6002B08C500FF2F5708C900013019
:101C52000310C90DFF3E031D292E0310490D353E09
:101C620084000A168A110A200A128A15CA000A1664
:101C72008A110A200A128A15CB000A168A110A2032
:101C82000A128A15CC000A168A110A200A128A152B
:101C9200CD004D08C8004C08C7004B08C6004A08D2
:101CA200C500FF2F5708803A123E031C592E5A2EA8
:101CB200442F0A30A2000030A3005708F500F601B5
:101CC200F51BF6036430F3000030F4000A168A159F
:101CD2003A260A128A15740883120313A5007308A0
:101CE200A4000A128A118C270A128A15831203137E
:101CF2002208C90001300310C90DFF3E031D7C2ECE
:101D02000310490D253E84000A168A110A200A1280
:101D12008A15CA000A168A110A200A128A15CB00ED
:101D22000A168A110A200A128A15CC000A168A118A
:101D32000A200A128A15CD004D08AE004C08AD00EB
:101D42004B08AC004A08AB006430A2000030A3008C
:101D52005708A400A501A41BA5030A128A118C2707
:101D62000A128A15831203132208CE0001300310CF
:101D7200CE0DFF3E031DB82E03104E0D493E8400CA
:101D82000A168A110A200A128A15CF000A168A1127
:101D92000A200A128A15D0000A168A110A200A128B
:101DA2008A15D1000A168A110A200A128A15D2004F
:101DB2005208B2005108B1005008B0004F08AF00FD
:101DC2000A128A153C210A128A15831203132E085D
:101DD200D6002D08D5002C08D4002B08D3000A30D9
:101DE200F3000030F4005708F500F601F51BF60386
:101DF2000A168A153A260A128A15730883120313E1
:101E0200C90001300310C90DFF3E031D032F03104B
:101E1200490D013E84000A168A110A200A128A1507
:101E2200CA000A168A110A200A128A15CB000A165B
:101E32008A110A200A128A15CC000A168A110A206F
:101E42000A128A15CD004D08AE004C08AD004B08B1
:101E5200AC004A08AB005608B2005508B10054085D
:101E6200B0005308AF000A128A153C210A128A15E3
:101E7200831203132E08C8002D08C7002C08C600C1
:101E82002B08C500FF2F5708803A753E031C4A2FC6
:101E92004B2FD32F0A30F3000030F4005708F5001F
:101EA200F601F51BF6030A168A153A260A128A1556
:101EB200730883120313C90001300310C90DFF3EDA
:101EC200031D5E2F0310490D013E84000A168A117C
:101ED2000A200A128A15CA000A168A110A200A1250
:101EE2008A15CB000A168A110A200A128A15CC001A
:101EF2000A168A110A200A128A15CD004D08AE0070
:101F02004C08AD004B08AC004A08AB000A30A200F6
:101F12000030A3005708A400A501A41BA5030A12C0
:101F22008A118C270A128A15831203132208CE0003
:101F320001300310CE0DFF3E031D9A2F03104E0DEC
:101F4200253E84000A168A110A200A128A15CF0039
:101F52000A168A110A200A128A15D0000A168A1154
:101F62000A200A128A15D1000A168A110A200A12B8
:101F72008A15D2005208B2005108B1005008B000D0
:101F82004F08AF000A128A153C210A128A158312E1
:101F920003132E08C8002D08C7002C08C6002B0802
:101FA200C500FF2F5708C90001300310C90DFF3EBD
:101FB200031DD62F0310490D013E84000A168A1113
:101FC2000A200A128A15CA000A168A110A200A125F
:101FD2008A15CB000A168A110A200A128A15CC0029
:101FE2000A168A110A200A128A15CD004D08C80065
:101FF2004C08C7004B08C6004A08C5000800FF1B72
:102002000A2883137F1883170008840A0319FF0A1A
:10201200080010308A000408840A82070034003461
:10202200003480343F3400340034203441340034EE
:102032000034C8344234003400347A344434003436
:1020420040341C34463400345034C33447340034F2
:102052002434743449348034963418344B34203464
:10206200BC34BE344C3428346B346E344E34F934C0
:10207200023415345034EC347834AD346034CA341C
:10208200F234493471340034003480343F34CD3476
:10209200CC34CC343D340A34D73423343C346F341A
:1020A200123483343A341734B734D1343834AC343C
:1020B200C53427343734BD34373486343534953417
:1020C200BF34D63433347734CC342B3432345F34A7
:1020D200703489343034FF34E634DB342E3408343F
:1020E200E5343C341E3460344234A2340D340134BD
:1020F2000034003400340A340034003400346434D0
:10210200003400340034E834033400340034103432
:10211200273400340034A03486340134003440348F
:1021220042340F340034803496349834003400340E
:10213200E134F53405340034CA349A343B34203463
:1021420025342E343234663456340034503431342B
:0C2152003A340034503432343A34003453
:1021600064008001840A0406031900340406B128BF
:102170000310831203135A0D5B0DDC005C08E200B0
:102180006208031DC428C528CE280030DB000030BB
:10219000DA000030D9000030D80033295808DC00BC
:1021A0005908DD005A08DE005B08DF001F3003100D
:1021B000DF0CDE0CDD0CDC0CFF3E031DD7285C08B9
:1021C000E0006008E100DA17FF30D805FF30D905DC
:1021D000FF30DA050030DB059630E202E21FF1281D
:1021E000F2280C296208803A973E0318F828F9284B
:1021F000FA28C52801300310DB0CDA0CD90CD80CF6
:10220000FF3E031DFB280130DC005C08E207031DD4
:102210000A290B29FA28232920306202031C1129DC
:1022200012291E29C5280130DC000310D80DD90D54
:10223000DA0DDB0DDC0B15290130E2026208031D0B
:102240002229232913296108031927292829332939
:10225000D809D909DA09DB09D80A0319D90A0319F7
:10226000DA0A0319DB0A080083120313A400240806
:1022700003193B293C295029F61F3F2940295029A1
:102280007309A6007409A7007509A8007609A900BA
:10229000A60A0319A70A0319A80A0319A90A5829A3
:1022A0007608A9007508A8007408A7007308A6009E
:1022B0007608750474047304031D5F296029692975
:1022C0000030F6000030F5000030F4000030F3007C
:1022D000EF299630A0002008A5007B290130A0003E
:1022E0002008A50701300310A90CA80CA70CA60C08
:1022F000FF3E031D7329FE302905031D8029812916
:102300006E299D290130A0002008A5070130A607ED
:10231000003003180130A707003003180130A80768
:10232000003003180130A90701300310A90CA80CD4
:10233000A70CA60CFF3E031D9529FF302905031DA0
:10234000A229A3298229AF290130A5020130A000CA
:102350000310A60DA70DA80DA90DA00BA829A81B59
:10236000B229B329B929023025020318B829B9299D
:10237000A4292518BC29BD29C529FF30A605FF3091
:10238000A7057F30A805FF30A9050310A50C250877
:10239000A000A101A201A30118300310A00DA10DFE
:1023A000A20DA30DFF3E031DCD292008A604210880
:1023B000A7042208A8042308A90424080319E12972
:1023C000E229E729F61FE529E629E729A9172908BF
:1023D000F6002808F5002708F4002608F300080096
:1023E000831203132008F3002108F4002208F500EB
:1023F0000310740D750DF6007608AD002D08031D51
:10240000022A032A0C2A0030A3000030A200003068
:10241000A1000030A000AC2A2408F3002508F40035
:102420002608F5000310740D750DF6007608AC0053
:102430002C08031D1C2A1D2A1E2A032AA117FF305F
:10244000A005FF30A1050030A205A517FF30A405A7
:10245000FF30A5050030A6050030AB000030AA0013
:102460000030A9000030A8007F30AD0298302C0762
:10247000F3007308AD021830F3007308AC000130AC
:10248000F3000310A80DA90DAA0DAB0DF30B412A03
:1024900026082202031D522A25082102031D522A62
:1024A00024082002031C552A562A612A2408A00267
:1024B0002508031C250FA1022608031C260AA202D8
:1024C000281401300310A00DA10DA20DFF3E031D25
:1024D000622A0130AC02031D6E2A6F2A3F2AAD1F0B
:1024E000722A732A8D2A2D08803A973E0318792A7A
:1024F0007A2A7B2A032A01300310AB0CAA0CA90C00
:10250000A80CFF3E031D7C2A0130F3007308AD07C1
:10251000031D8B2A8C2A7B2AA42A18302D02031C27
:10252000922A932A9F2A032A0130F3000310A80D50
:10253000A90DAA0DAB0DF30B962A0130AD022D08A3
:10254000031DA32AA42A942A2B08A3002A08A20068
:102550002908A1002808A000080003108312031313
:10256000220D230DF3007308AD002D08031DB92AB9
:10257000BA2AC32A0030A3000030A2000030A10014
:102580000030A0006A2B0310260D270DF3007308FE
:10259000AC002C08031DCD2ACE2ACF2ABA2AA217B6
:1025A000FF30A005FF30A105FF30A2050030A305D4
:1025B000A617FF30A405FF30A505FF30A6050030A3
:1025C000A7050030AB000030AA000030A9000030A1
:1025D000A8007F30AD02A0302C07F3007308AD02D5
:1025E0002030F3007308AC000130F3000310A80D95
:1025F000A90DAA0DAB0DF30BF62A27082302031D24
:102600000B2B26082202031D0B2B25082102031D7C
:102610000B2B24082002031C0E2B0F2B1E2B24082F
:10262000A0022508031C250FA1022608031C260F63
:10263000A2022708031C270FA30228140130F3006D
:102640000310A00DA10DA20DA30DF30B202B013043
:10265000AC02031D2C2B2D2BF42AAD1F302B312B5C
:102660004B2B2D08803A9F3E0318372B382B392BE4
:10267000BA2A01300310AB0CAA0CA90CA80CFF3E1F
:10268000031D3A2B0130F3007308AD07031D492BDE
:102690004A2B392B622B20302D02031C502B512B3F
:1026A0005D2BBA2A0130F3000310A80DA90DAA0D65
:1026B000AB0DF30B542B0130AD022D08031D612B24
:1026C000622B522B2B08A3002A08A2002908A10084
:1026D0002808A000080083120313D8006E305802A7
:1026E000031C732B742B832C3F30AE000030AD00E5
:1026F0000030AC000030AB006430A1000030A2001C
:102700005808C900CA014908A3004A08A4000A16CB
:102710008A1515240A168A11831203132108CB0087
:1027200001300310CB0DFF3E031D912B03104B0D09
:102730007D3E84000A168A110A200A168A11CC00EE
:102740000A168A110A200A168A11CD000A168A1161
:102750000A200A168A11CE000A168A110A200A16C1
:102760008A11CF004F08B2004E08B1004D08B000EA
:102770004C08AF000A128A153C210A168A118312EE
:1027800003132E08D7002D08D6002C08D5002B08DF
:10279000D4000A30A1000030A2005808C900CA01C4
:1027A0004908F5004A08F6006430F3000030F400F0
:1027B0000A168A1515230A168A1174088312031340
:1027C000A4007308A3000A168A1515240A168A1194
:1027D000831203132108CB0001300310CB0DFF3E01
:1027E000031DED2B03104B0D593E84000A168A1170
:1027F0000A200A168A11CC000A168A110A200A1623
:102800008A11CD000A168A110A200A168A11CE00F2
:102810000A168A110A200A168A11CF004F08AE0044
:102820004E08AD004D08AC004C08AB005708B20094
:102830005608B1005508B0005408AF000A128A15B6
:102840003C210A168A11831203132E08D3002D0887
:10285000D2002C08D1002B08D0000A30F300003041
:10286000F4005808C900CA014908F5004A08F600F2
:102870000A168A1515230A168A1173088312031380
:10288000CB0001300310CB0DFF3E031D422C031083
:102890004B0D353E84000A168A110A200A168A1149
:1028A000CC000A168A110A200A168A11CD000A16CF
:1028B0008A110A200A168A11CE000A168A110A20E5
:1028C0000A168A11CF004F08AE004E08AD004D0821
:1028D000AC004C08AB005308B2005208B1005108DC
:1028E000B0005008AF000A128A153C210A168A115E
:1028F000831203132E08C8002D08C7002C08C60039
:102900002B08C500772D0B305802031C882C892C0E
:10291000342D3F30AE000030AD000030AC00003050
:10292000AB000A30A1000030A2005808C900CA015B
:102930004908A3004A08A4000A168A1515240A1695
:102940008A11831203132108CB0001300310CB0D31
:10295000FF3E031DA62C03104B0D593E84000A16A2
:102960008A110A200A168A11CC000A168A110A2036
:102970000A168A11CD000A168A110A200A168A112F
:10298000CE000A168A110A200A168A11CF004F08B3
:10299000B2004E08B1004D08B0004C08AF000A125A
:1029A0008A153C210A168A11831203132E08D700B8
:1029B0002D08D6002C08D5002B08D4000A30F300CF
:1029C0000030F4005808C900CA014908F5004A0857
:1029D000F6000A168A1515230A168A11730883123F
:1029E0000313CB0001300310CB0DFF3E031DF32C6E
:1029F00003104B0D353E84000A168A110A200A1670
:102A00008A11CC000A168A110A200A168A11CD00F2
:102A10000A168A110A200A168A11CE000A168A118D
:102A20000A200A168A11CF004F08AE004E08AD00EA
:102A30004D08AC004C08AB005708B2005608B10076
:102A40005508B0005408AF000A128A153C210A1636
:102A50008A11831203132E08C8002D08C7002C0802
:102A6000C6002B08C500772D3F30AE000030AD000A
:102A70000030AC000030AB005808C9000130031032
:102A8000C90DFF3E031D3F2D0310490D353E840047
:102A90000A168A110A200A168A11CA000A168A1111
:102AA0000A200A168A11CB000A168A110A200A1671
:102AB0008A11CC000A168A110A200A168A11CD0042
:102AC0004D08B2004C08B1004B08B0004A08AF00F6
:102AD0000A128A153C210A168A11831203132E0842
:102AE000C8002D08C7002C08C6002B08C500080028
:102AF000831203135C088039E1006108E9005C0877
:102B0000E1006107E2006208EB00DB1F882D892DE0
:102B10008A2D6B146B0803198E2D8F2D9F2D6B0A38
:102B2000031D932D942D9C2D0030DC000030DB0024
:102B30000030DA000030D900DB17DC01A72D0030AF
:102B4000DC000030DB000030DA000030D900600823
:102B50008039E1006108EA006A0869060319B12DAD
:102B6000B22DB32D69176008E1006107E200620829
:102B7000EA00DF1FBC2DBD2DBE2D6A146A080319A3
:102B8000C22DC32DD32D6A0A031DC72DC82DD02DEC
:102B90000030E0000030DF000030DE000030DD00FB
:102BA000DF17E001DB2D0030E0000030DF000030F7
:102BB000DE000030DD006B086A020318E02DE12D15
:102BC000252E691FE42DE52DE92D8030E1006108F7
:102BD000E9066B08E1006108EC006A08E1006108A1
:102BE000EB006C08E1006108EA005908E1006108A7
:102BF000EC005D08E1006108D9006C08E1006108A3
:102C0000DD005A08E1006108EC005E08E10061089F
:102C1000DA006C08E1006108DE005B08E100610891
:102C2000EC005F08E1006108DB006C08E10061086E
:102C3000DF005C08E1006108EC006008E100610869
:102C4000DC006C08E1006108E000EC016A08E100CA
:102C5000E2016208E4006B086102E300031CE40384
:102C60006408803AFF0080307F02031D392E1A303D
:102C70006302031C3C2E3D2E7A2E831203135C0844
:102C80005B045A045904031D462E482E0130492E78
:102C90000030E1006108EC000030DC000030DB00B7
:102CA0000030DA000030D9006A08E1006108EB006A
:102CB000822E6C1C5C2E5D2E662E6C08E1000310CB
:102CC000610C0138E2006208EC00682E0310EC0C85
:102CD000591C6B2E6C2E6D2EEC170130E1005C0D33
:102CE000DC0CDB0CDA0CD90CE10B6F2E0130E100AF
:102CF0006108EB07831203136A086B02031C812E21
:102D0000822E592E691B852E862ED12E6B08031D0F
:102D10008A2E8B2E942E0030DC000030DB00003039
:102D2000DA000030D900FF2F5D08D9075E080311D3
:102D30000318013E03199D2EDA075F0803110318DB
:102D4000013E0319A42EDB07600803110318013E9E
:102D50000319AB2EDC075C1CAE2EAF2E852F6C1C2E
:102D6000B22EB32EBC2E6C08E1000310610C0138AA
:102D7000E2006208EC00BE2E0310EC0C591CC12EC0
:102D8000C22EC32EEC170130E1005C0DDC0CDB0C15
:102D9000DA0CD90CE10BC52E0130E1006108EB071C
:102DA000852F5C08803AFF006008803A7F02031D8F
:102DB000E32E5F085B02031DE32E5E085A02031D2B
:102DC000E32E5D0859020318E62EE72E3F2FFF3051
:102DD000E100FF30E200FF30E300FF30E4005D0877
:102DE000E5005E08E6005F08E7006008E8005908B3
:102DF000E5025A08031C5A0FFE2EFF2EE6025B085E
:102E0000031C5B0F042F052FE7025C08031C5C0FFB
:102E10000A2F0B2FE8026508E10766080318660F02
:102E2000122F132FE20767080318670F182F192FA7
:102E3000E30768080318680AE4076408DC0063080D
:102E4000DB006208DA006108D9008030E100610827
:102E5000E906EC09EC0A6C08031D2F2F302F4D2FCB
:102E60000130D907003003180130DA0700300318A9
:102E70000130DB07003003180130DC074D2F5D08FF
:102E8000D9025E08031C5E0FDA025F08031C5F0FA5
:102E9000DB026008031C600FDC025C085B045A0460
:102EA0005904031D542F552F812F6C08031D592FD2
:102EB0005A2F812F0030DC000030DB000030DA00B8
:102EC0000030D900FF2F0130E1000310D90DDA0DD9
:102ED000DB0DDC0DE10B652FEC1F6F2F702F712FB9
:102EE00059146C1C742F752F782F0314EC0D7A2F46
:102EF0000310EC0D6B0803197E2F7F2F812F0130FB
:102F0000EB02DB1F842F852F632FEA01EC1F892F33
:102F10008A2F982F6C087F3903198F2F902F932FAA
:102F2000EA01EA0A982F591C962F972F982F902F75
:102F30006A0803199C2F9D2FD12F0130D90700302B
:102F400003180130DA07003003180130DB070030C6
:102F500003180130DC075C1CAE2FAF2FD12F5908AE
:102F6000E1005A08E2005B08E3005C08E40001307D
:102F7000E500640DE40CE30CE20CE10CE50BB92F69
:102F80006408DC006308DB006208DA006108D9002D
:102F90006B0A0319CC2FCD2FD12F0130E10061082E
:102FA000EB076B0A0319D52FD62FDB2F6B08031DF8
:102FB000DA2FDB2FE92F0030DC000030DB0000309F
:102FC000DA000030D9006B08031DE72FE82FE92F46
:102FD000E9016B1CEC2FED2FEF2FDB17F32F7F3068
:102FE000E1006108DB056B08E1000310610CE20001
:102FF0006208DC00E91FFD2FFE2FFF2FDC17080001
:10344C00831203130C1308003D3083120313810005
:10345C000B11080000300A168A153D220A168A152F
:10346C0001300A168A153D220A168A150800F60044
:10347C0083120313061076080A128A1501200A1605
:10348C008A158312031386140B30F5006230F40096
:10349C00F40B4E2AF50B4E2A0000831203138610F0
:1034AC000800F60083120313061476080A128A1514
:1034BC0001200A168A158312031386140B30F500AB
:1034CC006230F400F40B682AF50B682A00008312B2
:1034DC0003138610080083120313A1002103031D9C
:1034EC00782A792A852A77087F3EA0002008A20036
:1034FC0022080A168A153D220A168A15962A0230C7
:10350C002106031D8A2A8B2A962A7708BF3EA00023
:10351C002008A20022080A168A153D220A168A15CE
:10352C00080083120313A400A001A1017308F50085
:10353C00F6017508A2007608A300241CA62AA72A67
:10354C00AD2A2208A0070318A10A2308A1070130FD
:10355C000310A20DA30DFF3E031DAE2A0310A40CF5
:10356C002408031DBA2ABB2AA32A2108F400200828
:10357C00F300080083160317890103308800033019
:10358C008316031385008601870188018901831244
:10359C000313850186018701880189018B1700308F
:1035AC000A168A1551230A168A15FF300A168A152F
:1035BC008E250A168A15F301F40100300A168A15B5
:1035CC00A2240A168A15080083120313A001A10174
:1035DC00731CF12AF22AFA2A750883120313A00726
:1035EC000318A10A7608A10701300310F50DF60D9A
:1035FC00FF3E031DFB2A01300310F40CF30CFF3EBD
:10360C00031D022B73087404031D0D2B0E2BEE2AC5
:10361C00831203132108F4002008F3000800730838
:10362C00740403191A2B1B2B4C2B83120313A001AC
:10363C00A00A2B2B01300310F30DF40DFF3E031DDC
:10364C00212B0130F7007708A007F41F2E2B2F2B0E
:10365C00202B74087602031D352B73087502031C8E
:10366C00382B392B3F2B7308F5027408031CF60317
:10367C00F60201300310F40CF30CFF3E031D402B3B
:10368C000130A002031D4B2B4C2B2F2B7608F40082
:10369C007508F3000800F5007508F300F30E8316A7
:1036AC0003130F0873068F3973068F00772B0F08DF
:1036BC008F3940388F000F148D2B0F088F395038ED
:1036CC008F000F148D2B0F088F3960388F000F145B
:1036DC008D2B70308F040F148D2B70308F040F14C2
:1036EC008D2B7508F300F4017408003A03197F2B35
:1036FC00732B7308003A03195D2B013A0319632BE2
:10370C00033A0319692B013A03196F2B732B080029
:10371C00F500831203139F18942B952BCE2B1F0CA3
:10372C00F400740C0F397506031D9D2B9E2BAF2BCB
:10373C001030F400F40BA02B00007308F400F40D0F
:10374C00F40D831203131F087406C33974069F000B
:10375C00C72B1F0CF400740C0F397306031DB72B09
:10376C00B82BC72B1730F400F40BBA2B7508F400E8
:10377C00F40DF40D831203131F087406C339740679
:10378C009F002130F400F40BC92B831203139F14F8
:10379C00080083120313A501A601F82B25082007A6
:1037AC00A3002108A2000318A20AA51FDE2BA20366
:1037BC00831203132208A4002408FF0023088400AA
:1037CC000A168A1100200A168A150A168A1557221B
:1037DC000A168A15013083120313A5070318A60ACB
:1037EC000030A60725082007A3002108A200031813
:1037FC00A20AA51F022CA203831203132208A40001
:10380C002408FF00230884000A168A1100200A16D7
:10381C008A15003A031D132C142CD42B0800831288
:10382C000313A701A8012108220403191E2C1F2C25
:10383C00562CA601A60A2D2C01300310A10DA20DA9
:10384C00FF3E031D232C0130A5002508A607A21F4F
:10385C00302C312C222C01300310A70DA80DFF3E6B
:10386C00031D322C22082402031D3E2C21082302A6
:10387C00031C412C422C492C2108A3022208031CB6
:10388C00A403A402271401300310A20CA10CFF3EC8
:10389C00031D4A2C0130A602031D552C562C312C2D
:1038AC002808A2002708A1000800831203130C1F8C
:1038BC00602C612C7C2C1F0CF000700C0F39003A22
:1038CC00031D692C6A2C712C1E08F00070088316DD
:1038DC000313DF00772C1E08F00070088316031307
:1038EC00DE000A168A1526220A168A150B1D7F2C55
:1038FC00802C9B2C0130F0007008F80719307806EA
:10390C00031D892C8A2C962CF801831203136D0845
:10391C00031D912C922C952CED01ED0A962CED01AA
:10392C000A168A152A220A168A1572088A00710E3E
:10393C008300FE0E7E0E0900F700BC2C3F30831274
:10394C0003139F05CF2C831203131F083F394038F4
:10395C009F00CF2C831203131F083F3980389F0020
:10396C00CF2CC030831203139F04CF2C7708F500A3
:10397C00F6017608003A0319C42CB72C7508003AE6
:10398C000319A42C013A0319A92C033A0319B02CDE
:10399C00B72C831603139F13730C031C1F120318ED
:1039AC001F16740C031C9F1203189F16831203130B
:1039BC001F14C730F500E22CF50BE12CE52CE62C9E
:1039CC000B17831603130C17831203130C13080025
:1039DC000030831203132005F30000302105F4009E
:1039EC0080302205F5007F302305F600760875043B
:1039FC0074047304031D032D042D0C2D0030A3003F
:103A0C000030A2000030A1000030A00000302405DE
:103A1C00F30000302505F40080302605F5007F30DA
:103A2C002705F6007608750474047304031D1F2D16
:103A3C00202D282D0030A7000030A6000030A50056
:103A4C000030A40027082306031D362D2608220665
:103A5C00031D362D25082106031D362D24082006AE
:103A6C000319392D3A2D3C2D03103D2D031408005C
:103A7C00803083160313A306270883120313DC007C
:103A8C0083160313260883120313DB008316031318
:103A9C00250883120313DA008316031324088312F8
:103AAC000313D90083160313230883120313E000B6
:103ABC0083160313220883120313DF0083160313E8
:103ACC00210883120313DE008316031320088312CC
:103ADC000313DD000A168A1178250A168A1583123B
:103AEC0003135C0883160313A300831203135B08F0
:103AFC0083160313A200831203135A0883160313AD
:103B0C00A10083120313590883160313A0000800A5
:103B1C00F5008316031381127508031D962D972D3E
:103B2C00992D8115BB2D8111BB2D01108110011117
:103B3C00DD2D011481100111DD2D011081140111F5
:103B4C00DD2D011481140111DD2D011081100115E1
:103B5C00DD2D011481100115DD2D011081140115CD
:103B6C00DD2D011481140115DD2D7508F300F40110
:103B7C007408003A0319C32DDD2D7308023A03199A
:103B8C009B2D063A03199F2D0C3A0319A32D183AB5
:103B9C000319A72D303A0319AB2D603A0319AF2D39
:103BAC00C03A0319B32D7F3A0319B72DDD2D3D30E3
:103BBC008312031381008B160B110800831203135D
:103BCC0023082204210420040319ED2DEE2D312E9F
:103BDC00F401F40AFE2D0130F3000310A00DA10D29
:103BEC00A20DA30DF30BF32D0130F3007308F407B2
:103BFC00A31F012E022EF12D23082702031D102EC8
:103C0C0022082602031D102E21082502031D102E4A
:103C1C0020082402031C132E142E222E2008A4028A
:103C2C002108031C210FA5022208031C220FA60247
:103C3C002308031C230FA70201300310A30CA20CB2
:103C4C00A10CA00CFF3E031D232E0130F402031D1A
:103C5C00302E312E022E2708A3002608A20025089C
:103C6C00A1002408A000080083120313A101F61F71
:103C7C00402E412E482EF509F609F50A0319F60ACD
:103C8C00A101A10AF41F4B2E4C2E512EF309F4095D
:103C9C00F30A0319F40A730874040319562E572EE9
:103CAC00862EA001A00A652E01300310F30DF40D31
:103CBC00FF3E031D5B2E0130F7007708A007F41FB1
:103CCC00682E692E5A2E74087602031D6F2E730807
:103CDC007502031C722E732E792E7308F50274086C
:103CEC00031CF603F60201300310F40CF30CFF3E38
:103CFC00031D7A2E0130A002031D852E862E692EFF
:103D0C00210803198A2E8B2E902EF509F609F50A37
:103D1C000319F60A7608F4007508F3000800003061
:103D2C000A128A1501200A168A15343083120313DD
:103D3C00A100F130A000A00BA12EA10BA12E3030C0
:103D4C000A168A153D220A168A150D3083120313A2
:103D5C00A100FB30A000A00BB12EA10BB12E303076
:103D6C000A168A153D220A168A151D308312031372
:103D7C00A1009030A000A00BC12EA10BC12E000001
:103D8C0030300A168A153D220A168A1538300A1662
:103D9C008A153D220A168A150C300A168A153D2200
:103DAC000A168A1501300A168A153D220A168A153A
:103DBC0006300A168A153D220A168A15023083121D
:103DCC000313A2000430A100B930A000A00BEC2E0C
:103DDC00A10BEC2EA20BEC2EF32E0800003083125C
:103DEC000313AB000030AA000030A9000030A8007B
:103DFC0023082204210420040319052F062F532F16
:103E0C00AC01AC0A162F0130F3000310A00DA10D6C
:103E1C00A20DA30DF30B0B2F0130F3007308AC07AD
:103E2C00A31F192F1A2F092F0130F3000310A80D0F
:103E3C00A90DAA0DAB0DF30B1C2F23082702031D94
:103E4C00312F22082602031D312F21082502031DC4
:103E5C00312F20082402031C342F352F442F200827
:103E6C00A4022108031C210FA5022208031C220F07
:103E7C00A6022308031C230FA702281401300310E9
:103E8C00A30CA20CA10CA00CFF3E031D452F01306E
:103E9C00AC02031D522F532F1A2F2B08A3002A08F4
:103EAC00A2002908A1002808A000080000308312F5
:103EBC0003132005F30000302105F40080302205A7
:103ECC00F5007F302305F60076087504740473043E
:103EDC00031D712F722F7A2F0030A3000030A20027
:103EEC000030A1000030A00000302405F3000030A9
:103EFC002505F40080302605F5007F302705F600F7
:103F0C007608750474047304031D8D2F8E2F962F61
:103F1C000030A7000030A6000030A5000030A4003F
:103F2C00A31F992F9A2FBE2F0030F3000030F400FE
:103F3C000030F5008030F6002008F3022108031C45
:103F4C00210FA92FAA2FF4022208031C220FAF2F36
:103F5C00B02FF5022308031C230FB52FB62FF60242
:103F6C007608A3007508A2007408A1007308A000CD
:103F7C00A71FC12FC22FE62F0030F3000030F40032
:103F8C000030F5008030F6002408F3022508031CED
:103F9C00250FD12FD22FF4022608031C260FD72F62
:103FAC00D82FF5022708031C270FDD2FDE2FF60272
:103FBC007608A7007508A6007408A5007308A4006D
:103FCC008030A3068030A70627082302031DF82F94
:103FDC0026082202031DF82F25082102031DF82FA5
:103FEC00240820020318FB2FFC2FFE2F0310FF2F99
:0C3FFC0003140800FF3FFF3FFF3FFF3FA2
:04400E00D420FF3F7C
:00000001FF
